:020000040000FA
:100000000C945D000C9485000C9485000C94850084
:100010000C9485000C9485000C9485000C9485004C
:100020000C9485000C9485000C9485000C944F0270
:100030000C9485000C9485000C9485000C9485002C
:100040000C9405020C9485000C9485000C9485009A
:100050000C9485000C9485000C9485000C9485000C
:100060000C9485000C94850000000008000201003B
:100070000003040700000000000000000000000072
:10008000250028002B0000000000240027002A0083
:10009000040404040404040402020202020203032E
:1000A0000303030301020408102040800102040836
:1000B00010200102040810207B0411241FBECFEF82
:1000C000D8E0DEBFCDBF11E0A0E0B1E0ECEFF9E099
:1000D00002C005900D92A030B107D9F721E0A0E051
:1000E000B1E001C01D92AA33B207E1F710E0CDE5FF
:1000F000D0E004C02197FE010E94F604CC35D10760
:10010000C9F70E9426030C94FC040C940000CF93C2
:10011000DF93DC018C918C3008F06DC0CB01FB01CA
:10012000EC55FF4F249180579F4FFC018491882309
:1001300099F090E0880F991FFC01EA57FF4FC59195
:10014000D491FC01E458FF4F859194918FB7F894B6
:10015000E881E22BE8838FBF8C91282F30E0F901F2
:10016000EE0FFF1FE20FF31FEA5EFE4F962F9F7305
:100170006081607C692B608311961C9211971296A6
:100180001C9212972CE0622F0E94EA04829FB00119
:10019000112430E020E0AB01420F531FFA01EE0FB3
:1001A000FF1FE40FF51FEA5EFE4F908196FD16C01B
:1001B0002F5F3F4F2C30310571F781110FC0109226
:1001C000800082E08093810010928500109284006C
:1001D000B19A80916F00826080936F00EC918E2FB6
:1001E00090E0FC01EE0FFF1FE80FF91FEA5EFE4FE3
:1001F0008081806480838C91DF91CF91089590E01D
:10020000FC01E859FF4F2491FC01EC55FF4F34915C
:10021000FC01E057FF4FE491EE23C9F0222339F0AF
:10022000233001F1A8F4213019F1223029F1F0E056
:10023000EE0FFF1FE458FF4FA591B4918FB7F894CC
:10024000EC91611126C030953E233C938FBF0895F9
:100250002730A9F02830C9F0243049F78091800078
:100260008F7D03C0809180008F7780938000DFCFE7
:1002700084B58F7784BDDBCF84B58F7DFBCF809134
:10028000B0008F778093B000D2CF8091B0008F7D87
:10029000F9CF3E2BDACF3FB7F894809112019091BD
:1002A0001301A0911401B091150126B5A89B05C0BA
:1002B0002F3F19F00196A11DB11D3FBFBA2FA92FE5
:1002C000982F8827BC01CD01620F711D811D911DE2
:1002D00042E0660F771F881F991F4A95D1F708954E
:1002E0008F929F92AF92BF92CF92DF92EF92FF9246
:1002F0004B015C010E944B016B017C010E944B0190
:100300006C197D098E099F09683E7340810591052E
:10031000A8F321E0821A9108A108B10888EEC80E5E
:1003200083E0D81EE11CF11C81149104A104B104E6
:1003300029F7FF90EF90DF90CF90BF90AF909F9004
:100340008F9008958F929F92AF92BF92FF920F93DA
:100350001F93CF93DF93FC01F0808BE08F1508F49F
:100360004AC0828108E512E0081B110987FD139538
:10037000000F111F000F111F8181C8E8D0E0C81BBA
:10038000D10987FDD395CC0FDD1FCC0FDD1F4E01AA
:100390000D2E000CAA08BB089801012E000C440B7E
:1003A000550B281939094A095B09DB010E94B10480
:1003B00024EB30E040E050E00E948704820E931E60
:1003C000A41EB51E8C169D062CF0E8018016910621
:1003D0000CF4E4012297CC0FDD1F2FB7F8948F2D7A
:1003E00090E0FC01EE0FFF1FE80FF91FEA5EFE4FE1
:1003F000D283C1832FBFDF91CF911F910F91FF90C7
:10040000BF90AF909F908F9008951F920F920FB65C
:100410000F9211242F933F938F939F93AF93BF938A
:1004200080910E0190910F01A0911001B0911101E6
:1004300030910D0123E0230F2D3758F50196A11DB2
:10044000B11D20930D0180930E0190930F01A09395
:100450001001B09311018091120190911301A091AC
:100460001401B09115010196A11DB11D80931201D7
:1004700090931301A0931401B0931501BF91AF9114
:100480009F918F913F912F910F900FBE0F901F90D2
:10049000189526E8230F0296A11DB11DD2CF1F92F9
:1004A0000F920FB60F9211242F933F934F935F93A8
:1004B0006F937F938F939F93AF93BF93CF93DF936C
:1004C000EF93FF9380910001C0910101D0E087FF7D
:1004D00024C01092850010928400809100018F5FEB
:1004E0008093000180910001082E000C990B8C175D
:1004F0009D0724F4809100018C30C4F18091840028
:1005000090918500049680349C4908F47AC08091CB
:10051000840090918500049676C080910001082E99
:10052000000C990B8C179D07C4F6E09100018E2FEB
:10053000EE0F990BFC01EE0FFF1FE80FF91FEA5EAB
:10054000FE4F808186FFC9CFE09100018E2FEE0F14
:10055000990BFC01EE0FFF1FE80FF91FEA5EFE4F3B
:10056000808160E08F730E94FF00B7CF20918400EC
:1005700030918500E09100018E2FEE0F990BFC0168
:10058000EE0FFF1FE80FF91FEA5EFE4F8181928197
:10059000820F931F9093890080938800E09100015F
:1005A0008E2FEE0F990BFC01EE0FFF1FE80FF91FC6
:1005B000EA5EFE4F808186FF11C0E09100018E2F20
:1005C000EE0F990BFC01EE0FFF1FE80FF91FEA5E1B
:1005D000FE4F808161E08F730E94FF00FF91EF91D9
:1005E000DF91CF91BF91AF919F918F917F916F914B
:1005F0005F914F913F912F910F900FBE0F901F90E1
:10060000189580E49CE990938900809388008FEF8F
:1006100080930001E3CFFC01909101019C3098F49C
:1006200081E0890F809301019083892F90E0FC0184
:10063000EE0FFF1FE80FF91FEA5EFE4F88EB9BE00D
:100640009283818308958FEF80830895789484B591
:10065000826084BD84B5816084BD85B5826085BDBE
:1006600085B5816085BD80916E00816080936E004C
:10067000109281008091810082608093810080913E
:1006800081008160809381008091800081608093EF
:1006900080008091B10084608093B1008091B000AF
:1006A00081608093B00080917A00846080937A00AA
:1006B00080917A00826080937A0080917A008160D4
:1006C00080937A0080917A00806880937A001092FB
:1006D000C10069E070E08AE091E00E9487006AE072
:1006E00070E087E091E00E9487006BE070E084E0BA
:1006F00091E00E948700C0E0D0E068EB7BE080E002
:1007000090E00E94700160E570E08AE091E00E9454
:10071000A20168EB7BE080E090E00E9470016FE056
:1007200070E087E091E00E94A20168EB7BE080E04E
:1007300090E00E94700170E060E084E091E00E942F
:10074000A20168EB7BE080E090E00E9470016DE721
:1007500070E084E091E00E94A20168EB7BE080E021
:1007600090E00E94700170E060E087E091E00E94FC
:10077000A20168EB7BE080E090E00E94700163E7FB
:1007800070E08AE091E00E94A20168EB7BE080E0EB
:1007900090E00E94700180910301882309F450C009
:1007A00064E670E080E090E00E9470016AE570E02D
:1007B0008AE091E00E94A20164E670E080E090E0AF
:1007C0000E94700170E060E087E091E00E94A20169
:1007D00064E670E080E090E00E94700170E060E00C
:1007E00084E091E00E94A20164E670E080E090E085
:1007F0000E94700167E870E08AE091E00E94A20127
:1008000064E670E080E090E00E94700170E060E0DB
:1008100087E091E00E94A20164E670E080E090E051
:100820000E94700164EB70E084E091E00E94A201FC
:1008300064E670E080E090E00E9470011092030195
:1008400080910201882309F450C064E670E080E0E2
:1008500090E00E94700167E870E08AE091E00E94F9
:10086000A20164E670E080E090E00E94700170E018
:1008700060E087E091E00E94A20164E670E080E021
:1008800090E00E94700164EB70E084E091E00E94CF
:10089000A20164E670E080E090E00E94700167E8E9
:1008A00070E08AE091E00E94A20164E670E080E0DE
:1008B00090E00E94700170E060E087E091E00E94AB
:1008C000A20164E670E080E090E00E94700164EBB9
:1008D00070E084E091E00E94A20164E670E080E0B4
:1008E00090E00E94700110920201209709F405CF58
:1008F0000E94000002CF8AE091E00E940B0387E093
:1009000091E00E940B0384E091E00C940B03052E10
:1009100097FB1EF400940E949E0457FD07D00E948E
:10092000B90407FC03D04EF40C949E0450954095F6
:10093000309521953F4F4F4F5F4F0895909580958B
:10094000709561957F4F8F4F9F4F08950E94DB04F4
:10095000A59F900DB49F900DA49F800D911D112413
:100960000895B7FF0C94A6040E94A604821B930B63
:100970000895A1E21A2EAA1BBB1BFD010DC0AA1FE0
:10098000BB1FEE1FFF1FA217B307E407F50720F0F8
:10099000A21BB30BE40BF50B661F771F881F991F73
:1009A0001A9469F760957095809590959B01AC01BC
:1009B000BD01CF010895A29FB001B39FC001A39FC5
:1009C000700D811D1124911DB29F700D811D112488
:1009D000911D0895991B79E004C0991F961708F09E
:1009E000961B881F7A95C9F780950895EE0FFF1F13
:0C09F0000590F491E02D0994F894FFCFDD
:107E0000112484B714BE81FFF0D085E080938100F7
:107E100082E08093C00088E18093C10086E0809377
:107E2000C20080E18093C4008EE0C9D0259A86E02C
:107E300020E33CEF91E0309385002093840096BBD3
:107E4000B09BFECF1D9AA8958150A9F7CC24DD24C4
:107E500088248394B5E0AB2EA1E19A2EF3E0BF2EE7
:107E6000A2D0813461F49FD0082FAFD0023811F036
:107E7000013811F484E001C083E08DD089C08234E0
:107E800011F484E103C0853419F485E0A6D080C0E4
:107E9000853579F488D0E82EFF2485D0082F10E0AE
:107EA000102F00270E291F29000F111F8ED06801E7
:107EB0006FC0863521F484E090D080E0DECF843638
:107EC00009F040C070D06FD0082F6DD080E0C81688
:107ED00080E7D80618F4F601B7BEE895C0E0D1E017
:107EE00062D089930C17E1F7F0E0CF16F0E7DF06D8
:107EF00018F0F601B7BEE89568D007B600FCFDCFD4
:107F0000A601A0E0B1E02C9130E011968C91119780
:107F100090E0982F8827822B932B1296FA010C0160
:107F200087BEE89511244E5F5F4FF1E0A038BF0790
:107F300051F7F601A7BEE89507B600FCFDCF97BE46
:107F4000E89526C08437B1F42ED02DD0F82E2BD052
:107F50003CD0F601EF2C8F010F5F1F4F84911BD097
:107F6000EA94F801C1F70894C11CD11CFA94CF0C13
:107F7000D11C0EC0853739F428D08EE10CD085E9AC
:107F80000AD08FE07ACF813511F488E018D01DD067
:107F900080E101D065CF982F8091C00085FFFCCF94
:107FA0009093C60008958091C00087FFFCCF809118
:107FB000C00084FD01C0A8958091C6000895E0E648
:107FC000F0E098E1908380830895EDDF803219F02E
:107FD00088E0F5DFFFCF84E1DECF1F93182FE3DFCA
:107FE0001150E9F7F2DF1F91089580E0E8DFEE27F6
:047FF000FF270994CA
:027FFE00040479
:00000001FF
