:020000040000FA
:100000000C9462000C948A000C948A000C948A0070
:100010000C948A000C948A000C948A000C948A0038
:100020000C948A000C948A000C948A000C9463024D
:100030000C948A000C948A000C948A000C948A0018
:100040000C9419020C948A000C948A000C948A0077
:100050000C948A000C948A000C948A000C948A00F8
:100060000C948A000C948A000000000023002600F3
:10007000290000000008000201000003040700003E
:1000800000000000000000000000250028002B00F8
:1000900000000000240027002A00040404040404D3
:1000A0000404020202020202030303030303010227
:1000B00004081020408001020408102001020408F6
:1000C0001020A00411241FBECFEFD8E0DEBFCDBFAB
:1000D00011E0A0E0B1E0E6E4FAE002C005900D9284
:1000E000A230B107D9F721E0A2E0B1E001C01D9232
:1000F000AC33B207E1F710E0C2E6D0E004C02197CC
:10010000FE010E941B05C136D107C9F70E943A03C0
:100110000C9421050C940000CF93DF93DC018C91AB
:100120008C3008F06DC0CB01FB01E255FF4F2491EC
:1001300086569F4FFC018491882399F090E0880FA8
:10014000991FFC01E057FF4FC591D491FC01EA577C
:10015000FF4F859194918FB7F894E881E22BE88363
:100160008FBF8C91282F30E0F901EE0FFF1FE20FB7
:10017000F31FE85EFE4F962F9F736081607C692BB2
:10018000608311961C92119712961C9212972CE084
:10019000622F0E940F05829FB001112430E020E001
:1001A000AB01420F531FFA01EE0FFF1FE40FF51FC3
:1001B000E85EFE4F908196FD16C02F5F3F4F2C30BA
:1001C000310571F781110FC01092800082E0809399
:1001D00081001092850010928400B19A80916F0086
:1001E000826080936F00EC918E2F90E0FC01EE0F07
:1001F000FF1FE80FF91FE85EFE4F80818064808357
:100200008C91DF91CF910895833081F028F4813073
:1002100099F08230A9F008958730A9F08830C9F0AC
:100220008430B1F4809180008F7D03C08091800084
:100230008F7780938000089584B58F7784BD08956B
:1002400084B58F7DFBCF8091B0008F778093B00015
:1002500008958091B0008F7DF9CF1F93CF93DF93E6
:10026000282F30E0F901EE58FF4F8491F901E25553
:10027000FF4FD491F901E656FF4FC491CC23A9F06A
:10028000162F81110E940401EC2FF0E0EE0FFF1FEA
:10029000EA57FF4FA591B4918FB7F894EC911111E3
:1002A00008C0D095DE23DC938FBFDF91CF911F91E3
:1002B0000895DE2BF8CF3FB7F89480911401909108
:1002C0001501A0911601B091170126B5A89B05C094
:1002D0002F3F19F00196A11DB11D3FBFBA2FA92FC5
:1002E000982F8827BC01CD01620F711D811D911DC2
:1002F00042E0660F771F881F991F4A95D1F708952E
:100300008F929F92AF92BF92CF92DF92EF92FF9225
:100310000E945B014B015C0184ECC82E89E0D82E61
:10032000E12CF12C0E945B01681979098A099B096B
:10033000683E734081059105A8F321E0C21AD108F7
:10034000E108F10888EE880E83E0981EA11CB11C1C
:10035000C114D104E104F10429F7FF90EF90DF907C
:10036000CF90BF90AF909F908F9008958F929F9263
:10037000AF92BF92FF920F931F93CF93DF93FC0135
:10038000F0808BE08F1508F44AC0828108E512E006
:10039000081B110987FD1395000F111F000F111F76
:1003A0008181C8E8D0E0C81BD10987FDD395CC0F67
:1003B000DD1FCC0FDD1F4E010D2E000CAA08BB085F
:1003C0009801012E000C440B550B281939094A09D4
:1003D0005B09DB010E94D60424EB30E040E050E0F2
:1003E0000E94AC04820E931EA41EB51E8C169D06A0
:1003F0002CF0E801801691060CF4E4012297CC0F52
:10040000DD1F2FB7F8948F2D90E0FC01EE0FFF1F3A
:10041000E80FF91FE85EFE4FD283C1832FBFDF9143
:10042000CF911F910F91FF90BF90AF909F908F90B1
:1004300008951F920F920FB60F9211242F933F939E
:100440008F939F93AF93BF9380911001909111016F
:10045000A0911201B091130130910F0123E0230FFD
:100460002D3758F50196A11DB11D20930F018093E2
:10047000100190931101A0931201B0931301809188
:10048000140190911501A0911601B09117010196E8
:10049000A11DB11D8093140190931501A093160125
:1004A000B0931701BF91AF919F918F913F912F9181
:1004B0000F900FBE0F901F90189526E8230F0296FD
:1004C000A11DB11DD2CF1F920F920FB60F92112412
:1004D0002F933F934F935F936F937F938F939F934C
:1004E000AF93BF93CF93DF93EF93FF93809102017C
:1004F000C0910301D0E087FF24C0109285001092C4
:100500008400809102018F5F80930201809102013B
:10051000082E000C990B8C179D0724F48091020182
:100520008C30C4F1809184009091850004968034D1
:100530009C4908F47AC080918400909185000496CB
:1005400076C080910201082E000C990B8C179D0734
:10055000C4F6E09102018E2FEE0F990BFC01EE0F15
:10056000FF1FE80FF91FE85EFE4F808186FFC9CFAD
:10057000E09102018E2FEE0F990BFC01EE0FFF1F91
:10058000E80FF91FE85EFE4F808160E08F730E94E4
:100590002D01B7CF2091840030918500E0910201B8
:1005A0008E2FEE0F990BFC01EE0FFF1FE80FF91FC6
:1005B000E85EFE4F81819281820F931F90938900A4
:1005C00080938800E09102018E2FEE0F990BFC01C1
:1005D000EE0FFF1FE80FF91FE85EFE4F808186FFD8
:1005E00011C0E09102018E2FEE0F990BFC01EE0F6E
:1005F000FF1FE80FF91FE85EFE4F808161E08F73F7
:100600000E942D01FF91EF91DF91CF91BF91AF91AA
:100610009F918F917F916F915F914F913F912F911A
:100620000F900FBE0F901F90189580E49CE9909357
:100630008900809388008FEF80930201E3CFFC0153
:10064000909103019C3098F481E0890F809303011D
:100650009083892F90E0FC01EE0FFF1FE80FF91F38
:10066000E85EFE4F88EB9BE09283818308958FEFD5
:1006700080830895789484B5826084BD84B5816058
:1006800084BD85B5826085BD85B5816085BD80915D
:100690006E00816080936E001092810080918100D5
:1006A00082608093810080918100816080938100CD
:1006B000809180008160809380008091B10084608F
:1006C0008093B1008091B00081608093B0008091F0
:1006D0007A00846080937A0080917A0082608093AF
:1006E0007A0080917A00816080937A0080917A000C
:1006F000806880937A001092C10069E070E086E023
:1007000091E00E948C006AE070E089E091E00E9434
:100710008C006BE070E08CE091E00E948C00C6EBF6
:10072000D0E0FE01249102EA10E0F80184918823D0
:10073000C9F090E0880F991FFC01E057FF4FA59189
:10074000B491FC01EA57FF4F459154919FB7F8943B
:100750003C91822F809583238C93FA018081282BF2
:1007600020839FBF9AE7E92E90E0F92E20E0C22E69
:1007700020E0D22EAA24A394F7018491FE01B49024
:10078000F80194909110C6C06DE770E08CE091E0A4
:100790000E94B6010E94800162E870E089E091E069
:1007A0000E94B6010E94800163E770E086E091E05C
:1007B0000E94B6010E948001809105018823B1F159
:1007C0000E94800160E570E086E091E00E94B60141
:1007D0000E94800164E670E089E091E00E94B60129
:1007E0000E94800170E060E08CE091E00E94B60120
:1007F0000E9480016DE770E08CE091E00E94B601FC
:100800000E94800162E870E089E091E00E94B601F8
:100810000E94800163E770E086E091E00E94B601EB
:100820000E94800110920501A092000180910001B8
:100830008823B1F10E94800163E770E086E091E0D7
:100840000E94B6010E94800166E970E089E091E0B3
:100850000E94B6010E94800170E060E08CE091E0AF
:100860000E94B6010E9480016DE770E08CE091E08B
:100870000E94B6010E94800162E870E089E091E088
:100880000E94B6010E94800163E770E086E091E07B
:100890000E94B6010E94800110920001A092040102
:1008A00080910401882309F444C00E9480016AEA0F
:1008B00070E086E091E00E94B6010E9480016AE546
:1008C00070E089E091E00E94B6010E94800170E032
:1008D00060E08CE091E00E94B6010E9480016DE72B
:1008E00070E08CE091E00E94B6010E94800168E710
:1008F00070E089E091E00E94B6010E94800163E708
:1009000070E086E091E00E94B6010E9480011092A2
:1009100004010FC081110E940401E92DF0E0EE0FE7
:10092000FF1FE859FF4FA591B4918C91B82209F4AB
:100930002BCFC114D10409F41FCF0E9400001CCF9B
:1009400086E091E00E941F0389E091E00E941F036E
:100950008CE091E00C941F03052E97FB1EF400948D
:100960000E94C30457FD07D00E94DE0407FC03D099
:100970004EF40C94C30450954095309521953F4F0B
:100980004F4F5F4F089590958095709561957F4F7B
:100990008F4F9F4F08950E940005A59F900DB49F13
:1009A000900DA49F800D911D11240895B7FF0C9404
:1009B000CB040E94CB04821B930B0895A1E21A2E54
:1009C000AA1BBB1BFD010DC0AA1FBB1FEE1FFF1FF3
:1009D000A217B307E407F50720F0A21BB30BE40B43
:1009E000F50B661F771F881F991F1A9469F760958A
:1009F0007095809590959B01AC01BD01CF01089544
:100A0000A29FB001B39FC001A39F700D811D11244F
:100A1000911DB29F700D811D1124911D0895991B88
:100A200079E004C0991F961708F0961B881F7A95E5
:100A3000C9F780950895EE0FFF1F0590F491E02D02
:080A40000994F894FFCF0100B6
:107E0000112484B714BE81FFF0D085E080938100F7
:107E100082E08093C00088E18093C10086E0809377
:107E2000C20080E18093C4008EE0C9D0259A86E02C
:107E300020E33CEF91E0309385002093840096BBD3
:107E4000B09BFECF1D9AA8958150A9F7CC24DD24C4
:107E500088248394B5E0AB2EA1E19A2EF3E0BF2EE7
:107E6000A2D0813461F49FD0082FAFD0023811F036
:107E7000013811F484E001C083E08DD089C08234E0
:107E800011F484E103C0853419F485E0A6D080C0E4
:107E9000853579F488D0E82EFF2485D0082F10E0AE
:107EA000102F00270E291F29000F111F8ED06801E7
:107EB0006FC0863521F484E090D080E0DECF843638
:107EC00009F040C070D06FD0082F6DD080E0C81688
:107ED00080E7D80618F4F601B7BEE895C0E0D1E017
:107EE00062D089930C17E1F7F0E0CF16F0E7DF06D8
:107EF00018F0F601B7BEE89568D007B600FCFDCFD4
:107F0000A601A0E0B1E02C9130E011968C91119780
:107F100090E0982F8827822B932B1296FA010C0160
:107F200087BEE89511244E5F5F4FF1E0A038BF0790
:107F300051F7F601A7BEE89507B600FCFDCF97BE46
:107F4000E89526C08437B1F42ED02DD0F82E2BD052
:107F50003CD0F601EF2C8F010F5F1F4F84911BD097
:107F6000EA94F801C1F70894C11CD11CFA94CF0C13
:107F7000D11C0EC0853739F428D08EE10CD085E9AC
:107F80000AD08FE07ACF813511F488E018D01DD067
:107F900080E101D065CF982F8091C00085FFFCCF94
:107FA0009093C60008958091C00087FFFCCF809118
:107FB000C00084FD01C0A8958091C6000895E0E648
:107FC000F0E098E1908380830895EDDF803219F02E
:107FD00088E0F5DFFFCF84E1DECF1F93182FE3DFCA
:107FE0001150E9F7F2DF1F91089580E0E8DFEE27F6
:047FF000FF270994CA
:027FFE00040479
:00000001FF
