:100000000C945D000C9485000C9485000C94850084
:100010000C9485000C9485000C9485000C9485004C
:100020000C9485000C9485000C9485000C9452026D
:100030000C9485000C9485000C9485000C9485002C
:100040000C9408020C9485000C9485000C94850097
:100050000C9485000C9485000C9485000C9485000C
:100060000C9485000C94850000000008000201003B
:100070000003040700000000000000000000000072
:10008000250028002B0000000000240027002A0083
:10009000040404040404040402020202020203032E
:1000A0000303030301020408102040800102040836
:1000B00010200102040810202E0411241FBECFEFCF
:1000C000D8E0DEBFCDBF11E0A0E0B1E0E2E6F9E0AC
:1000D00002C005900D92A230B107D9F721E0A2E04D
:1000E000B1E001C01D92AC33B207E1F710E0CDE5FD
:1000F000D0E004C02197FE010E94A904CC35D107AD
:10010000C9F70E9429030C94AF040C940000CF930C
:10011000DF93DC018C918C3008F06DC0CB01FB01CA
:10012000EC55FF4F249180579F4FFC018491882309
:1001300099F090E0880F991FFC01EA57FF4FC59195
:10014000D491FC01E458FF4F859194918FB7F894B6
:10015000E881E22BE8838FBF8C91282F30E0F901F2
:10016000EE0FFF1FE20FF31FE85EFE4F962F9F7307
:100170006081607C692B608311961C9211971296A6
:100180001C9212972CE0622F0E949D04829FB00166
:10019000112430E020E0AB01420F531FFA01EE0FB3
:1001A000FF1FE40FF51FE85EFE4F908196FD16C01D
:1001B0002F5F3F4F2C30310571F781110FC0109226
:1001C000800082E08093810010928500109284006C
:1001D000B19A80916F00826080936F00EC918E2FB6
:1001E00090E0FC01EE0FFF1FE80FF91FE85EFE4FE5
:1001F0008081806480838C91DF91CF91089590E01D
:10020000FC01E859FF4F2491FC01EC55FF4F34915C
:10021000FC01E057FF4FE491EE23C9F0222339F0AF
:10022000233001F1A8F4213019F1223029F1F0E056
:10023000EE0FFF1FE458FF4FA591B4918FB7F894CC
:10024000EC91611126C030953E233C938FBF0895F9
:100250002730A9F02830C9F0243049F78091800078
:100260008F7D03C0809180008F7780938000DFCFE7
:1002700084B58F7784BDDBCF84B58F7DFBCF809134
:10028000B0008F778093B000D2CF8091B0008F7D87
:10029000F9CF3E2BDACF3FB7F894809114019091BB
:1002A0001501A0911601B091170126B5A89B05C0B4
:1002B0002F3F19F00196A11DB11D3FBFBA2FA92FE5
:1002C000982F8827BC01CD01620F711D811D911DE2
:1002D00042E0660F771F881F991F4A95D1F708954E
:1002E0008F929F92AF92BF92CF92DF92EF92FF9246
:1002F0000E944B014B015C0184E6C82ED12CE12CFD
:10030000F12C0E944B01681979098A099B09683E02
:10031000734081059105A8F321E0C21AD108E108D4
:10032000F10888EE880E83E0981EA11CB11CC11450
:10033000D104E104F10429F7FF90EF90DF90CF9012
:10034000BF90AF909F908F9008958F929F92AF92A1
:10035000BF92FF920F931F93CF93DF93FC01F08026
:100360008BE08F1508F44AC0828108E512E0081B73
:10037000110987FD1395000F111F000F111F8181B7
:10038000C8E8D0E0C81BD10987FDD395CC0FDD1F8D
:10039000CC0FDD1F4E010D2E000CAA08BB089801E2
:1003A000012E000C440B550B281939094A095B0929
:1003B000DB010E94640424EB30E040E050E00E9446
:1003C0003A04820E931EA41EB51E8C169D062CF0B8
:1003D000E801801691060CF4E4012297CC0FDD1F92
:1003E0002FB7F8948F2D90E0FC01EE0FFF1FE80F60
:1003F000F91FE85EFE4FD283C1832FBFDF91CF91FB
:100400001F910F91FF90BF90AF909F908F90089594
:100410001F920F920FB60F9211242F933F938F9339
:100420009F93AF93BF938091100190911101A09180
:100430001201B091130130910F0123E0230F2D37EA
:1004400058F50196A11DB11D20930F018093100155
:1004500090931101A0931201B093130180911401A4
:1004600090911501A0911601B09117010196A11D5F
:10047000B11D8093140190931501A0931601B093C0
:100480001701BF91AF919F918F913F912F910F9045
:100490000FBE0F901F90189526E8230F0296A11DFE
:1004A000B11DD2CF1F920F920FB60F9211242F932E
:1004B0003F934F935F936F937F938F939F93AF93EC
:1004C000BF93CF93DF93EF93FF9380910201C0918D
:1004D0000301D0E087FF24C01092850010928400B1
:1004E000809102018F5F8093020180910201082EAA
:1004F000000C990B8C179D0724F4809102018C301D
:10050000C4F18091840090918500049680349C49C8
:1005100008F47AC08091840090918500049676C09A
:1005200080910201082E000C990B8C179D07C4F6D0
:10053000E09102018E2FEE0F990BFC01EE0FFF1FD1
:10054000E80FF91FE85EFE4F808186FFC9CFE0917A
:1005500002018E2FEE0F990BFC01EE0FFF1FE80F2B
:10056000F91FE85EFE4F808160E08F730E94FF00FC
:10057000B7CF2091840030918500E09102018E2F49
:10058000EE0F990BFC01EE0FFF1FE80FF91FE85E5D
:10059000FE4F81819281820F931F909389008093F7
:1005A0008800E09102018E2FEE0F990BFC01EE0FF7
:1005B000FF1FE80FF91FE85EFE4F808186FF11C024
:1005C000E09102018E2FEE0F990BFC01EE0FFF1F41
:1005D000E80FF91FE85EFE4F808161E08F730E9493
:1005E000FF00FF91EF91DF91CF91BF91AF919F916C
:1005F0008F917F916F915F914F913F912F910F90CC
:100600000FBE0F901F90189580E49CE9909389008D
:10061000809388008FEF80930201E3CFFC019091DB
:1006200003019C3098F481E0890F8093030190834B
:10063000892F90E0FC01EE0FFF1FE80FF91FE85E25
:10064000FE4F88EB9BE09283818308958FEF808338
:100650000895789484B5826084BD84B5816084BD3A
:1006600085B5826085BD85B5816085BD80916E0050
:10067000816080936E001092810080918100826081
:1006800080938100809181008160809381008091BE
:1006900080008160809380008091B10084608093AD
:1006A000B1008091B00081608093B00080917A00A9
:1006B000846080937A0080917A00826080937A00CF
:1006C00080917A00816080937A0080917A008068BE
:1006D00080937A001092C10069E070E08CE091E0B4
:1006E0000E9487006AE070E089E091E00E94870044
:1006F0006BE070E086E091E00E948700C0E0D0E00F
:10070000809100018823A1F10E9470016DE270E0E8
:100710008CE091E00E94A5010E94700170E060E011
:1007200089E091E00E94A5010E94700164EB70E0F5
:1007300086E091E00E94A5010E94700167E870E0E8
:100740008CE091E00E94A5010E94700170E060E0E1
:1007500089E091E00E94A5010E94700164EB70E0C5
:1007600086E091E00E94A5010E94700110920001B4
:10077000809105018823A1F10E9470016AE570E073
:100780008CE091E00E94A5010E94700170E060E0A1
:1007900089E091E00E94A5010E94700164EB70E085
:1007A00086E091E00E94A5010E94700167E870E078
:1007B0008CE091E00E94A5010E94700170E060E071
:1007C00089E091E00E94A5010E94700164EB70E055
:1007D00086E091E00E94A5010E947001109205013F
:1007E000809104018823A1F10E94700167E870E004
:1007F0008CE091E00E94A5010E94700170E060E031
:1008000089E091E00E94A5010E94700164EB70E014
:1008100086E091E00E94A5010E94700167E870E007
:100820008CE091E00E94A5010E94700170E060E000
:1008300089E091E00E94A5010E94700164EB70E0E4
:1008400086E091E00E94A5010E94700110920401CF
:10085000209709F455CF0E94000052CF8CE091E020
:100860000E940E0389E091E00E940E0386E091E071
:100870000C940E03052E97FB1EF400940E94510465
:1008800057FD07D00E946C0407FC03D04EF40C9473
:10089000510450954095309521953F4F4F4F5F4FF4
:1008A000089590958095709561957F4F8F4F9F4FDC
:1008B00008950E948E04A59F900DB49F900DA49F53
:1008C000800D911D11240895B7FF0C9459040E94C6
:1008D0005904821B930B0895A1E21A2EAA1BBB1B7D
:1008E000FD010DC0AA1FBB1FEE1FFF1FA217B307FC
:1008F000E407F50720F0A21BB30BE40BF50B661F12
:10090000771F881F991F1A9469F7609570958095D5
:1009100090959B01AC01BD01CF010895A29FB0014C
:10092000B39FC001A39F700D811D1124911DB29F23
:10093000700D811D1124911D0895991B79E004C04B
:10094000991F961708F0961B881F7A95C9F780950E
:100950000895EE0FFF1F0590F491E02D0994F8948F
:02096000FFCFC7
:02096200010092
:00000001FF
